{
  "_format": "hh-sol-artifact-1",
  "contractName": "MessagePortal",
  "sourceName": "contracts/Messageportal.sol",
  "abi": [
    {
      "inputs": [],
      "stateMutability": "payable",
      "type": "constructor"
    },
    {
      "anonymous": false,
      "inputs": [
        {
          "indexed": true,
          "internalType": "address",
          "name": "from",
          "type": "address"
        },
        {
          "indexed": false,
          "internalType": "uint256",
          "name": "timestamp",
          "type": "uint256"
        },
        {
          "indexed": false,
          "internalType": "string",
          "name": "message",
          "type": "string"
        },
        {
          "indexed": false,
          "internalType": "string",
          "name": "messageType",
          "type": "string"
        }
      ],
      "name": "NewMessage",
      "type": "event"
    },
    {
      "inputs": [],
      "name": "getMessages",
      "outputs": [
        {
          "components": [
            {
              "internalType": "address",
              "name": "sender",
              "type": "address"
            },
            {
              "internalType": "uint256",
              "name": "timestamp",
              "type": "uint256"
            },
            {
              "internalType": "string",
              "name": "message",
              "type": "string"
            },
            {
              "internalType": "string",
              "name": "messageType",
              "type": "string"
            }
          ],
          "internalType": "struct MessagePortal.Message[]",
          "name": "",
          "type": "tuple[]"
        }
      ],
      "stateMutability": "view",
      "type": "function"
    },
    {
      "inputs": [],
      "name": "getTotalMessages",
      "outputs": [
        {
          "internalType": "uint256",
          "name": "",
          "type": "uint256"
        }
      ],
      "stateMutability": "view",
      "type": "function"
    },
    {
      "inputs": [
        {
          "internalType": "address",
          "name": "",
          "type": "address"
        }
      ],
      "name": "lastMessageAt",
      "outputs": [
        {
          "internalType": "uint256",
          "name": "",
          "type": "uint256"
        }
      ],
      "stateMutability": "view",
      "type": "function"
    },
    {
      "inputs": [
        {
          "internalType": "string",
          "name": "message",
          "type": "string"
        },
        {
          "internalType": "string",
          "name": "messageType",
          "type": "string"
        }
      ],
      "name": "send",
      "outputs": [],
      "stateMutability": "nonpayable",
      "type": "function"
    }
  ],
  "bytecode": "0x60806040526200004f6040518060400160405280601381526020017f536d61727420636f6e747261637420696e6974000000000000000000000000008152506200007760201b620006aa1760201c565b606444426200005f9190620001c4565b6200006b919062000261565b60008190555062000308565b62000117816040516024016200008e919062000184565b6040516020818303038152906040527f41304fac000000000000000000000000000000000000000000000000000000007bffffffffffffffffffffffffffffffffffffffffffffffffffffffff19166020820180517bffffffffffffffffffffffffffffffffffffffffffffffffffffffff83818316178352505050506200011a60201b60201c565b50565b60008151905060006a636f6e736f6c652e6c6f679050602083016000808483855afa5050505050565b60006200015082620001a8565b6200015c8185620001b3565b93506200016e8185602086016200022b565b6200017981620002f7565b840191505092915050565b60006020820190508181036000830152620001a0818462000143565b905092915050565b600081519050919050565b600082825260208201905092915050565b6000620001d18262000221565b9150620001de8362000221565b9250827fffffffffffffffffffffffffffffffffffffffffffffffffffffffffffffffff0382111562000216576200021562000299565b5b828201905092915050565b6000819050919050565b60005b838110156200024b5780820151818401526020810190506200022e565b838111156200025b576000848401525b50505050565b60006200026e8262000221565b91506200027b8362000221565b9250826200028e576200028d620002c8565b5b828206905092915050565b7f4e487b7100000000000000000000000000000000000000000000000000000000600052601160045260246000fd5b7f4e487b7100000000000000000000000000000000000000000000000000000000600052601260045260246000fd5b6000601f19601f8301169050919050565b61121280620003186000396000f3fe608060405234801561001057600080fd5b506004361061004c5760003560e01c806303cc7b2114610051578063147e9108146100815780635ff6cbf31461009f578063bd6de11c146100bd575b600080fd5b61006b600480360381019061006691906109c4565b6100d9565b6040516100789190610d9f565b60405180910390f35b6100896100f1565b6040516100969190610d9f565b60405180910390f35b6100a76100fe565b6040516100b49190610c9b565b60405180910390f35b6100d760048036038101906100d291906109ed565b6102e1565b005b60026020528060005260406000206000915090505481565b6000600180549050905090565b60606001805480602002602001604051908101604052809291908181526020016000905b828210156102d857838290600052602060002090600402016040518060800160405290816000820160009054906101000a900473ffffffffffffffffffffffffffffffffffffffff1673ffffffffffffffffffffffffffffffffffffffff1673ffffffffffffffffffffffffffffffffffffffff168152602001600182015481526020016002820180546101b590610f9a565b80601f01602080910402602001604051908101604052809291908181526020018280546101e190610f9a565b801561022e5780601f106102035761010080835404028352916020019161022e565b820191906000526020600020905b81548152906001019060200180831161021157829003601f168201915b5050505050815260200160038201805461024790610f9a565b80601f016020809104026020016040519081016040528092919081815260200182805461027390610f9a565b80156102c05780601f10610295576101008083540402835291602001916102c0565b820191906000526020600020905b8154815290600101906020018083116102a357829003601f168201915b50505050508152505081526020019060010190610122565b50505050905090565b42610384600260003373ffffffffffffffffffffffffffffffffffffffff1673ffffffffffffffffffffffffffffffffffffffff1681526020019081526020016000205461032f9190610ec6565b1061036f576040517f08c379a000000000000000000000000000000000000000000000000000000000815260040161036690610d3f565b60405180910390fd5b42600260003373ffffffffffffffffffffffffffffffffffffffff1673ffffffffffffffffffffffffffffffffffffffff16815260200190815260200160002081905550600160405180608001604052803373ffffffffffffffffffffffffffffffffffffffff16815260200142815260200184815260200183815250908060018154018082558091505060019003906000526020600020906004020160009091909190915060008201518160000160006101000a81548173ffffffffffffffffffffffffffffffffffffffff021916908373ffffffffffffffffffffffffffffffffffffffff1602179055506020820151816001015560408201518160020190805190602001906104829291906108a4565b50606082015181600301908051906020019061049f9291906108a4565b505050606460005442446104b39190610ec6565b6104bd9190610ec6565b6104c79190610ffd565b60008190555061050e6040518060400160405280601681526020017f52616e646f6d20232067656e6572617465643a20256400000000000000000000815250600054610743565b3373ffffffffffffffffffffffffffffffffffffffff167f9d18c0954cd04e7e75988a168440e7e7ef17d4a6f2c7f7eae427526fdf7beb3a42848460405161055893929190610dba565b60405180910390a26005600054116106a6576105a96040518060400160405280600781526020017f257320776f6e2100000000000000000000000000000000000000000000000000815250336107df565b6000655af3107a40009050478111156105f7576040517f08c379a00000000000000000000000000000000000000000000000000000000081526004016105ee90610d7f565b60405180910390fd5b60003373ffffffffffffffffffffffffffffffffffffffff168260405161061d90610c86565b60006040518083038185875af1925050503d806000811461065a576040519150601f19603f3d011682016040523d82523d6000602084013e61065f565b606091505b50509050806106a3576040517f08c379a000000000000000000000000000000000000000000000000000000000815260040161069a90610d5f565b60405180910390fd5b50505b5050565b610740816040516024016106be9190610cbd565b6040516020818303038152906040527f41304fac000000000000000000000000000000000000000000000000000000007bffffffffffffffffffffffffffffffffffffffffffffffffffffffff19166020820180517bffffffffffffffffffffffffffffffffffffffffffffffffffffffff838183161783525050505061087b565b50565b6107db8282604051602401610759929190610d0f565b6040516020818303038152906040527f9710a9d0000000000000000000000000000000000000000000000000000000007bffffffffffffffffffffffffffffffffffffffffffffffffffffffff19166020820180517bffffffffffffffffffffffffffffffffffffffffffffffffffffffff838183161783525050505061087b565b5050565b61087782826040516024016107f5929190610cdf565b6040516020818303038152906040527f319af333000000000000000000000000000000000000000000000000000000007bffffffffffffffffffffffffffffffffffffffffffffffffffffffff19166020820180517bffffffffffffffffffffffffffffffffffffffffffffffffffffffff838183161783525050505061087b565b5050565b60008151905060006a636f6e736f6c652e6c6f679050602083016000808483855afa5050505050565b8280546108b090610f9a565b90600052602060002090601f0160209004810192826108d25760008555610919565b82601f106108eb57805160ff1916838001178555610919565b82800160010185558215610919579182015b828111156109185782518255916020019190600101906108fd565b5b509050610926919061092a565b5090565b5b8082111561094357600081600090555060010161092b565b5090565b600061095a61095584610e24565b610dff565b90508281526020810184848401111561097257600080fd5b61097d848285610f58565b509392505050565b600081359050610994816111c5565b92915050565b600082601f8301126109ab57600080fd5b81356109bb848260208601610947565b91505092915050565b6000602082840312156109d657600080fd5b60006109e484828501610985565b91505092915050565b60008060408385031215610a0057600080fd5b600083013567ffffffffffffffff811115610a1a57600080fd5b610a268582860161099a565b925050602083013567ffffffffffffffff811115610a4357600080fd5b610a4f8582860161099a565b9150509250929050565b6000610a658383610bfe565b905092915050565b610a7681610f1c565b82525050565b610a8581610f1c565b82525050565b6000610a9682610e65565b610aa08185610e88565b935083602082028501610ab285610e55565b8060005b85811015610aee5784840389528151610acf8582610a59565b9450610ada83610e7b565b925060208a01995050600181019050610ab6565b50829750879550505050505092915050565b6000610b0b82610e70565b610b158185610ea4565b9350610b25818560208601610f67565b610b2e816110ea565b840191505092915050565b6000610b4482610e70565b610b4e8185610eb5565b9350610b5e818560208601610f67565b610b67816110ea565b840191505092915050565b6000610b7f600e83610eb5565b9150610b8a826110fb565b602082019050919050565b6000610ba2602783610eb5565b9150610bad82611124565b604082019050919050565b6000610bc5600083610e99565b9150610bd082611173565b600082019050919050565b6000610be8603483610eb5565b9150610bf382611176565b604082019050919050565b6000608083016000830151610c166000860182610a6d565b506020830151610c296020860182610c68565b5060408301518482036040860152610c418282610b00565b91505060608301518482036060860152610c5b8282610b00565b9150508091505092915050565b610c7181610f4e565b82525050565b610c8081610f4e565b82525050565b6000610c9182610bb8565b9150819050919050565b60006020820190508181036000830152610cb58184610a8b565b905092915050565b60006020820190508181036000830152610cd78184610b39565b905092915050565b60006040820190508181036000830152610cf98185610b39565b9050610d086020830184610a7c565b9392505050565b60006040820190508181036000830152610d298185610b39565b9050610d386020830184610c77565b9392505050565b60006020820190508181036000830152610d5881610b72565b9050919050565b60006020820190508181036000830152610d7881610b95565b9050919050565b60006020820190508181036000830152610d9881610bdb565b9050919050565b6000602082019050610db46000830184610c77565b92915050565b6000606082019050610dcf6000830186610c77565b8181036020830152610de18185610b39565b90508181036040830152610df58184610b39565b9050949350505050565b6000610e09610e1a565b9050610e158282610fcc565b919050565b6000604051905090565b600067ffffffffffffffff821115610e3f57610e3e6110bb565b5b610e48826110ea565b9050602081019050919050565b6000819050602082019050919050565b600081519050919050565b600081519050919050565b6000602082019050919050565b600082825260208201905092915050565b600081905092915050565b600082825260208201905092915050565b600082825260208201905092915050565b6000610ed182610f4e565b9150610edc83610f4e565b9250827fffffffffffffffffffffffffffffffffffffffffffffffffffffffffffffffff03821115610f1157610f1061102e565b5b828201905092915050565b6000610f2782610f2e565b9050919050565b600073ffffffffffffffffffffffffffffffffffffffff82169050919050565b6000819050919050565b82818337600083830152505050565b60005b83811015610f85578082015181840152602081019050610f6a565b83811115610f94576000848401525b50505050565b60006002820490506001821680610fb257607f821691505b60208210811415610fc657610fc561108c565b5b50919050565b610fd5826110ea565b810181811067ffffffffffffffff82111715610ff457610ff36110bb565b5b80604052505050565b600061100882610f4e565b915061101383610f4e565b9250826110235761102261105d565b5b828206905092915050565b7f4e487b7100000000000000000000000000000000000000000000000000000000600052601160045260246000fd5b7f4e487b7100000000000000000000000000000000000000000000000000000000600052601260045260246000fd5b7f4e487b7100000000000000000000000000000000000000000000000000000000600052602260045260246000fd5b7f4e487b7100000000000000000000000000000000000000000000000000000000600052604160045260246000fd5b6000601f19601f8301169050919050565b7f576169742031357365636f6e6473000000000000000000000000000000000000600082015250565b7f4661696c656420746f207769746864726177206d6f6e65792066726f6d20636f60008201527f6e74726163742e00000000000000000000000000000000000000000000000000602082015250565b50565b7f547279696e6720746f207769746864726177206d6f7265206d6f6e657920746860008201527f61742074686520636f6e7472616374206861732e000000000000000000000000602082015250565b6111ce81610f1c565b81146111d957600080fd5b5056fea26469706673582212204ce84286da640e0af2f536bc4d9a1d6b89bd1b0d9987a1d260ca0d1d5af8787f64736f6c63430008040033",
  "linkReferences": {},
  "deployedLinkReferences": {}
}